{
	"Lottery.sol": {
		"Lottery": {
			"abi": [
				{
					"inputs": [],
					"stateMutability": "nonpayable",
					"type": "constructor"
				},
				{
					"inputs": [],
					"name": "getBalance",
					"outputs": [
						{
							"internalType": "uint256",
							"name": "",
							"type": "uint256"
						}
					],
					"stateMutability": "view",
					"type": "function"
				},
				{
					"inputs": [],
					"name": "manager",
					"outputs": [
						{
							"internalType": "address",
							"name": "",
							"type": "address"
						}
					],
					"stateMutability": "view",
					"type": "function"
				},
				{
					"inputs": [
						{
							"internalType": "uint256",
							"name": "",
							"type": "uint256"
						}
					],
					"name": "participants",
					"outputs": [
						{
							"internalType": "address payable",
							"name": "",
							"type": "address"
						}
					],
					"stateMutability": "view",
					"type": "function"
				},
				{
					"inputs": [],
					"name": "random",
					"outputs": [
						{
							"internalType": "uint256",
							"name": "",
							"type": "uint256"
						}
					],
					"stateMutability": "view",
					"type": "function"
				},
				{
					"inputs": [],
					"name": "selectWinner",
					"outputs": [],
					"stateMutability": "nonpayable",
					"type": "function"
				},
				{
					"stateMutability": "payable",
					"type": "receive"
				}
			],
			"devdoc": {
				"kind": "dev",
				"methods": {},
				"version": 1
			},
			"evm": {
				"assembly": "    /* \"Lottery.sol\":72:1346  contract Lottery {... */\n  mstore(0x40, 0x80)\n    /* \"Lottery.sol\":172:276  constructor() {... */\n  callvalue\n  dup1\n  iszero\n  tag_1\n  jumpi\n  0x00\n  dup1\n  revert\ntag_1:\n  pop\n    /* \"Lottery.sol\":207:217  msg.sender */\n  caller\n    /* \"Lottery.sol\":197:204  manager */\n  0x00\n  dup1\n    /* \"Lottery.sol\":197:217  manager = msg.sender */\n  0x0100\n  exp\n  dup2\n  sload\n  dup2\n  0xffffffffffffffffffffffffffffffffffffffff\n  mul\n  not\n  and\n  swap1\n  dup4\n  0xffffffffffffffffffffffffffffffffffffffff\n  and\n  mul\n  or\n  swap1\n  sstore\n  pop\n    /* \"Lottery.sol\":72:1346  contract Lottery {... */\n  dataSize(sub_0)\n  dup1\n  dataOffset(sub_0)\n  0x00\n  codecopy\n  0x00\n  return\nstop\n\nsub_0: assembly {\n        /* \"Lottery.sol\":72:1346  contract Lottery {... */\n      mstore(0x40, 0x80)\n      jumpi(tag_1, lt(calldatasize, 0x04))\n      shr(0xe0, calldataload(0x00))\n      dup1\n      0x12065fe0\n      eq\n      tag_3\n      jumpi\n      dup1\n      0x33a99e04\n      eq\n      tag_4\n      jumpi\n      dup1\n      0x35c1d349\n      eq\n      tag_5\n      jumpi\n      dup1\n      0x481c6a75\n      eq\n      tag_6\n      jumpi\n      dup1\n      0x5ec01e4d\n      eq\n      tag_7\n      jumpi\n      jump(tag_2)\n    tag_1:\n      jumpi(tag_2, calldatasize)\n        /* \"Lottery.sol\":343:350  1 ether */\n      0x0de0b6b3a7640000\n        /* \"Lottery.sol\":330:339  msg.value */\n      callvalue\n        /* \"Lottery.sol\":330:350  msg.value >= 1 ether */\n      lt\n      iszero\n        /* \"Lottery.sol\":322:351  require(msg.value >= 1 ether) */\n      tag_10\n      jumpi\n      0x00\n      dup1\n      revert\n    tag_10:\n        /* \"Lottery.sol\":362:374  participants */\n      0x01\n        /* \"Lottery.sol\":388:398  msg.sender */\n      caller\n        /* \"Lottery.sol\":362:400  participants.push(payable(msg.sender)) */\n      swap1\n      dup1\n      0x01\n      dup2\n      sload\n      add\n      dup1\n      dup3\n      sstore\n      dup1\n      swap2\n      pop\n      pop\n      0x01\n      swap1\n      sub\n      swap1\n      0x00\n      mstore\n      keccak256(0x00, 0x20)\n      add\n      0x00\n      swap1\n      swap2\n      swap1\n      swap2\n      swap1\n      swap2\n      0x0100\n      exp\n      dup2\n      sload\n      dup2\n      0xffffffffffffffffffffffffffffffffffffffff\n      mul\n      not\n      and\n      swap1\n      dup4\n      0xffffffffffffffffffffffffffffffffffffffff\n      and\n      mul\n      or\n      swap1\n      sstore\n      stop\n        /* \"Lottery.sol\":72:1346  contract Lottery {... */\n    tag_2:\n      0x00\n      dup1\n      revert\n        /* \"Lottery.sol\":413:550  function getBalance() public view returns(uint){... */\n    tag_3:\n      callvalue\n      dup1\n      iszero\n      tag_12\n      jumpi\n      0x00\n      dup1\n      revert\n    tag_12:\n      pop\n      tag_13\n      tag_14\n      jump\t// in\n    tag_13:\n      mload(0x40)\n      tag_15\n      swap2\n      swap1\n      tag_16\n      jump\t// in\n    tag_15:\n      mload(0x40)\n      dup1\n      swap2\n      sub\n      swap1\n      return\n        /* \"Lottery.sol\":918:1343  function selectWinner() public{... */\n    tag_4:\n      callvalue\n      dup1\n      iszero\n      tag_17\n      jumpi\n      0x00\n      dup1\n      revert\n    tag_17:\n      pop\n      tag_18\n      tag_19\n      jump\t// in\n    tag_18:\n      stop\n        /* \"Lottery.sol\":125:162  address payable[] public participants */\n    tag_5:\n      callvalue\n      dup1\n      iszero\n      tag_20\n      jumpi\n      0x00\n      dup1\n      revert\n    tag_20:\n      pop\n      tag_21\n      0x04\n      dup1\n      calldatasize\n      sub\n      dup2\n      add\n      swap1\n      tag_22\n      swap2\n      swap1\n      tag_23\n      jump\t// in\n    tag_22:\n      tag_24\n      jump\t// in\n    tag_21:\n      mload(0x40)\n      tag_25\n      swap2\n      swap1\n      tag_26\n      jump\t// in\n    tag_25:\n      mload(0x40)\n      dup1\n      swap2\n      sub\n      swap1\n      return\n        /* \"Lottery.sol\":96:118  address public manager */\n    tag_6:\n      callvalue\n      dup1\n      iszero\n      tag_27\n      jumpi\n      0x00\n      dup1\n      revert\n    tag_27:\n      pop\n      tag_28\n      tag_29\n      jump\t// in\n    tag_28:\n      mload(0x40)\n      tag_30\n      swap2\n      swap1\n      tag_31\n      jump\t// in\n    tag_30:\n      mload(0x40)\n      dup1\n      swap2\n      sub\n      swap1\n      return\n        /* \"Lottery.sol\":611:769  function random() public view returns(uint){... */\n    tag_7:\n      callvalue\n      dup1\n      iszero\n      tag_32\n      jumpi\n      0x00\n      dup1\n      revert\n    tag_32:\n      pop\n      tag_33\n      tag_34\n      jump\t// in\n    tag_33:\n      mload(0x40)\n      tag_35\n      swap2\n      swap1\n      tag_16\n      jump\t// in\n    tag_35:\n      mload(0x40)\n      dup1\n      swap2\n      sub\n      swap1\n      return\n        /* \"Lottery.sol\":413:550  function getBalance() public view returns(uint){... */\n    tag_14:\n        /* \"Lottery.sol\":455:459  uint */\n      0x00\n        /* \"Lottery.sol\":493:500  manager */\n      dup1\n      0x00\n      swap1\n      sload\n      swap1\n      0x0100\n      exp\n      swap1\n      div\n      0xffffffffffffffffffffffffffffffffffffffff\n      and\n        /* \"Lottery.sol\":479:500  msg.sender == manager */\n      0xffffffffffffffffffffffffffffffffffffffff\n      and\n        /* \"Lottery.sol\":479:489  msg.sender */\n      caller\n        /* \"Lottery.sol\":479:500  msg.sender == manager */\n      0xffffffffffffffffffffffffffffffffffffffff\n      and\n      eq\n        /* \"Lottery.sol\":471:501  require(msg.sender == manager) */\n      tag_37\n      jumpi\n      0x00\n      dup1\n      revert\n    tag_37:\n        /* \"Lottery.sol\":521:542  address(this).balance */\n      selfbalance\n        /* \"Lottery.sol\":514:542  return address(this).balance */\n      swap1\n      pop\n        /* \"Lottery.sol\":413:550  function getBalance() public view returns(uint){... */\n      swap1\n      jump\t// out\n        /* \"Lottery.sol\":918:1343  function selectWinner() public{... */\n    tag_19:\n        /* \"Lottery.sol\":981:988  manager */\n      0x00\n      dup1\n      sload\n      swap1\n      0x0100\n      exp\n      swap1\n      div\n      0xffffffffffffffffffffffffffffffffffffffff\n      and\n        /* \"Lottery.sol\":967:988  msg.sender == manager */\n      0xffffffffffffffffffffffffffffffffffffffff\n      and\n        /* \"Lottery.sol\":967:977  msg.sender */\n      caller\n        /* \"Lottery.sol\":967:988  msg.sender == manager */\n      0xffffffffffffffffffffffffffffffffffffffff\n      and\n      eq\n        /* \"Lottery.sol\":959:989  require(msg.sender == manager) */\n      tag_39\n      jumpi\n      0x00\n      dup1\n      revert\n    tag_39:\n        /* \"Lottery.sol\":1031:1032  3 */\n      0x03\n        /* \"Lottery.sol\":1008:1020  participants */\n      0x01\n        /* \"Lottery.sol\":1008:1027  participants.length */\n      dup1\n      sload\n      swap1\n      pop\n        /* \"Lottery.sol\":1008:1032  participants.length >= 3 */\n      lt\n      iszero\n        /* \"Lottery.sol\":1000:1033  require(participants.length >= 3) */\n      tag_40\n      jumpi\n      0x00\n      dup1\n      revert\n    tag_40:\n        /* \"Lottery.sol\":1044:1050  uint r */\n      0x00\n        /* \"Lottery.sol\":1053:1061  random() */\n      tag_41\n        /* \"Lottery.sol\":1053:1059  random */\n      tag_34\n        /* \"Lottery.sol\":1053:1061  random() */\n      jump\t// in\n    tag_41:\n        /* \"Lottery.sol\":1044:1061  uint r = random() */\n      swap1\n      pop\n        /* \"Lottery.sol\":1072:1094  address payable winner */\n      0x00\n        /* \"Lottery.sol\":1105:1115  uint index */\n      dup1\n        /* \"Lottery.sol\":1122:1134  participants */\n      0x01\n        /* \"Lottery.sol\":1122:1141  participants.length */\n      dup1\n      sload\n      swap1\n      pop\n        /* \"Lottery.sol\":1118:1119  r */\n      dup4\n        /* \"Lottery.sol\":1118:1141  r % participants.length */\n      tag_42\n      swap2\n      swap1\n      tag_43\n      jump\t// in\n    tag_42:\n        /* \"Lottery.sol\":1105:1141  uint index = r % participants.length */\n      swap1\n      pop\n        /* \"Lottery.sol\":1161:1173  participants */\n      0x01\n        /* \"Lottery.sol\":1174:1179  index */\n      dup2\n        /* \"Lottery.sol\":1161:1180  participants[index] */\n      dup2\n      sload\n      dup2\n      lt\n      tag_44\n      jumpi\n      tag_45\n      tag_46\n      jump\t// in\n    tag_45:\n    tag_44:\n      swap1\n      0x00\n      mstore\n      keccak256(0x00, 0x20)\n      add\n      0x00\n      swap1\n      sload\n      swap1\n      0x0100\n      exp\n      swap1\n      div\n      0xffffffffffffffffffffffffffffffffffffffff\n      and\n        /* \"Lottery.sol\":1152:1180  winner = participants[index] */\n      swap2\n      pop\n        /* \"Lottery.sol\":1219:1225  winner */\n      dup2\n        /* \"Lottery.sol\":1219:1234  winner.transfer */\n      0xffffffffffffffffffffffffffffffffffffffff\n      and\n        /* \"Lottery.sol\":1219:1248  winner.transfer(getBalance()) */\n      0x08fc\n        /* \"Lottery.sol\":1235:1247  getBalance() */\n      tag_48\n        /* \"Lottery.sol\":1235:1245  getBalance */\n      tag_14\n        /* \"Lottery.sol\":1235:1247  getBalance() */\n      jump\t// in\n    tag_48:\n        /* \"Lottery.sol\":1219:1248  winner.transfer(getBalance()) */\n      swap1\n      dup2\n      iszero\n      mul\n      swap1\n      mload(0x40)\n      0x00\n      mload(0x40)\n      dup1\n      dup4\n      sub\n      dup2\n      dup6\n      dup9\n      dup9\n      call\n      swap4\n      pop\n      pop\n      pop\n      pop\n      iszero\n      dup1\n      iszero\n      tag_50\n      jumpi\n      returndatasize\n      0x00\n      dup1\n      returndatacopy\n      revert(0x00, returndatasize)\n    tag_50:\n      pop\n        /* \"Lottery.sol\":1299:1300  0 */\n      0x00\n        /* \"Lottery.sol\":1277:1301  new address payable[](0) */\n      0xffffffffffffffff\n      dup2\n      gt\n      iszero\n      tag_51\n      jumpi\n      tag_52\n      tag_53\n      jump\t// in\n    tag_52:\n    tag_51:\n      mload(0x40)\n      swap1\n      dup1\n      dup3\n      mstore\n      dup1\n      0x20\n      mul\n      0x20\n      add\n      dup3\n      add\n      0x40\n      mstore\n      dup1\n      iszero\n      tag_54\n      jumpi\n      dup2\n      0x20\n      add\n      0x20\n      dup3\n      mul\n      dup1\n      calldatasize\n      dup4\n      calldatacopy\n      dup1\n      dup3\n      add\n      swap2\n      pop\n      pop\n      swap1\n      pop\n    tag_54:\n      pop\n        /* \"Lottery.sol\":1262:1274  participants */\n      0x01\n        /* \"Lottery.sol\":1262:1301  participants = new address payable[](0) */\n      swap1\n      dup1\n      mload\n      swap1\n      0x20\n      add\n      swap1\n      tag_55\n      swap3\n      swap2\n      swap1\n      tag_56\n      jump\t// in\n    tag_55:\n      pop\n        /* \"Lottery.sol\":948:1343  {... */\n      pop\n      pop\n      pop\n        /* \"Lottery.sol\":918:1343  function selectWinner() public{... */\n      jump\t// out\n        /* \"Lottery.sol\":125:162  address payable[] public participants */\n    tag_24:\n      0x01\n      dup2\n      dup2\n      sload\n      dup2\n      lt\n      tag_57\n      jumpi\n      0x00\n      dup1\n      revert\n    tag_57:\n      swap1\n      0x00\n      mstore\n      keccak256(0x00, 0x20)\n      add\n      0x00\n      swap2\n      pop\n      sload\n      swap1\n      0x0100\n      exp\n      swap1\n      div\n      0xffffffffffffffffffffffffffffffffffffffff\n      and\n      dup2\n      jump\t// out\n        /* \"Lottery.sol\":96:118  address public manager */\n    tag_29:\n      0x00\n      dup1\n      sload\n      swap1\n      0x0100\n      exp\n      swap1\n      div\n      0xffffffffffffffffffffffffffffffffffffffff\n      and\n      dup2\n      jump\t// out\n        /* \"Lottery.sol\":611:769  function random() public view returns(uint){... */\n    tag_34:\n        /* \"Lottery.sol\":649:653  uint */\n      0x00\n        /* \"Lottery.sol\":704:720  block.difficulty */\n      difficulty\n        /* \"Lottery.sol\":722:737  block.timestamp */\n      timestamp\n        /* \"Lottery.sol\":739:751  participants */\n      0x01\n        /* \"Lottery.sol\":739:758  participants.length */\n      dup1\n      sload\n      swap1\n      pop\n        /* \"Lottery.sol\":687:759  abi.encodePacked(block.difficulty, block.timestamp, participants.length) */\n      add(0x20, mload(0x40))\n      tag_60\n      swap4\n      swap3\n      swap2\n      swap1\n      tag_61\n      jump\t// in\n    tag_60:\n      mload(0x40)\n      0x20\n      dup2\n      dup4\n      sub\n      sub\n      dup2\n      mstore\n      swap1\n      0x40\n      mstore\n        /* \"Lottery.sol\":677:760  keccak256(abi.encodePacked(block.difficulty, block.timestamp, participants.length)) */\n      dup1\n      mload\n      swap1\n      0x20\n      add\n      keccak256\n        /* \"Lottery.sol\":672:761  uint(keccak256(abi.encodePacked(block.difficulty, block.timestamp, participants.length))) */\n      0x00\n      shr\n        /* \"Lottery.sol\":665:761  return uint(keccak256(abi.encodePacked(block.difficulty, block.timestamp, participants.length))) */\n      swap1\n      pop\n        /* \"Lottery.sol\":611:769  function random() public view returns(uint){... */\n      swap1\n      jump\t// out\n    tag_56:\n      dup3\n      dup1\n      sload\n      dup3\n      dup3\n      sstore\n      swap1\n      0x00\n      mstore\n      keccak256(0x00, 0x20)\n      swap1\n      dup2\n      add\n      swap3\n      dup3\n      iszero\n      tag_62\n      jumpi\n      swap2\n      0x20\n      mul\n      dup3\n      add\n    tag_63:\n      dup3\n      dup2\n      gt\n      iszero\n      tag_64\n      jumpi\n      dup3\n      mload\n      dup3\n      exp(0x0100, 0x00)\n      dup2\n      sload\n      dup2\n      0xffffffffffffffffffffffffffffffffffffffff\n      mul\n      not\n      and\n      swap1\n      dup4\n      0xffffffffffffffffffffffffffffffffffffffff\n      and\n      mul\n      or\n      swap1\n      sstore\n      pop\n      swap2\n      0x20\n      add\n      swap2\n      swap1\n      0x01\n      add\n      swap1\n      jump(tag_63)\n    tag_64:\n    tag_62:\n      pop\n      swap1\n      pop\n      tag_65\n      swap2\n      swap1\n      tag_66\n      jump\t// in\n    tag_65:\n      pop\n      swap1\n      jump\t// out\n    tag_66:\n    tag_67:\n      dup1\n      dup3\n      gt\n      iszero\n      tag_68\n      jumpi\n      0x00\n      dup2\n      0x00\n      swap1\n      sstore\n      pop\n      0x01\n      add\n      jump(tag_67)\n    tag_68:\n      pop\n      swap1\n      jump\t// out\n        /* \"#utility.yul\":7:84   */\n    tag_69:\n        /* \"#utility.yul\":44:51   */\n      0x00\n        /* \"#utility.yul\":73:78   */\n      dup2\n        /* \"#utility.yul\":62:78   */\n      swap1\n      pop\n        /* \"#utility.yul\":7:84   */\n      swap2\n      swap1\n      pop\n      jump\t// out\n        /* \"#utility.yul\":90:208   */\n    tag_70:\n        /* \"#utility.yul\":177:201   */\n      tag_87\n        /* \"#utility.yul\":195:200   */\n      dup2\n        /* \"#utility.yul\":177:201   */\n      tag_69\n      jump\t// in\n    tag_87:\n        /* \"#utility.yul\":172:175   */\n      dup3\n        /* \"#utility.yul\":165:202   */\n      mstore\n        /* \"#utility.yul\":90:208   */\n      pop\n      pop\n      jump\t// out\n        /* \"#utility.yul\":214:436   */\n    tag_16:\n        /* \"#utility.yul\":307:311   */\n      0x00\n        /* \"#utility.yul\":345:347   */\n      0x20\n        /* \"#utility.yul\":334:343   */\n      dup3\n        /* \"#utility.yul\":330:348   */\n      add\n        /* \"#utility.yul\":322:348   */\n      swap1\n      pop\n        /* \"#utility.yul\":358:429   */\n      tag_89\n        /* \"#utility.yul\":426:427   */\n      0x00\n        /* \"#utility.yul\":415:424   */\n      dup4\n        /* \"#utility.yul\":411:428   */\n      add\n        /* \"#utility.yul\":402:408   */\n      dup5\n        /* \"#utility.yul\":358:429   */\n      tag_70\n      jump\t// in\n    tag_89:\n        /* \"#utility.yul\":214:436   */\n      swap3\n      swap2\n      pop\n      pop\n      jump\t// out\n        /* \"#utility.yul\":523:640   */\n    tag_72:\n        /* \"#utility.yul\":632:633   */\n      0x00\n        /* \"#utility.yul\":629:630   */\n      dup1\n        /* \"#utility.yul\":622:634   */\n      revert\n        /* \"#utility.yul\":769:891   */\n    tag_74:\n        /* \"#utility.yul\":842:866   */\n      tag_94\n        /* \"#utility.yul\":860:865   */\n      dup2\n        /* \"#utility.yul\":842:866   */\n      tag_69\n      jump\t// in\n    tag_94:\n        /* \"#utility.yul\":835:840   */\n      dup2\n        /* \"#utility.yul\":832:867   */\n      eq\n        /* \"#utility.yul\":822:885   */\n      tag_95\n      jumpi\n        /* \"#utility.yul\":881:882   */\n      0x00\n        /* \"#utility.yul\":878:879   */\n      dup1\n        /* \"#utility.yul\":871:883   */\n      revert\n        /* \"#utility.yul\":822:885   */\n    tag_95:\n        /* \"#utility.yul\":769:891   */\n      pop\n      jump\t// out\n        /* \"#utility.yul\":897:1036   */\n    tag_75:\n        /* \"#utility.yul\":943:948   */\n      0x00\n        /* \"#utility.yul\":981:987   */\n      dup2\n        /* \"#utility.yul\":968:988   */\n      calldataload\n        /* \"#utility.yul\":959:988   */\n      swap1\n      pop\n        /* \"#utility.yul\":997:1030   */\n      tag_97\n        /* \"#utility.yul\":1024:1029   */\n      dup2\n        /* \"#utility.yul\":997:1030   */\n      tag_74\n      jump\t// in\n    tag_97:\n        /* \"#utility.yul\":897:1036   */\n      swap3\n      swap2\n      pop\n      pop\n      jump\t// out\n        /* \"#utility.yul\":1042:1371   */\n    tag_23:\n        /* \"#utility.yul\":1101:1107   */\n      0x00\n        /* \"#utility.yul\":1150:1152   */\n      0x20\n        /* \"#utility.yul\":1138:1147   */\n      dup3\n        /* \"#utility.yul\":1129:1136   */\n      dup5\n        /* \"#utility.yul\":1125:1148   */\n      sub\n        /* \"#utility.yul\":1121:1153   */\n      slt\n        /* \"#utility.yul\":1118:1237   */\n      iszero\n      tag_99\n      jumpi\n        /* \"#utility.yul\":1156:1235   */\n      tag_100\n      tag_72\n      jump\t// in\n    tag_100:\n        /* \"#utility.yul\":1118:1237   */\n    tag_99:\n        /* \"#utility.yul\":1276:1277   */\n      0x00\n        /* \"#utility.yul\":1301:1354   */\n      tag_101\n        /* \"#utility.yul\":1346:1353   */\n      dup5\n        /* \"#utility.yul\":1337:1343   */\n      dup3\n        /* \"#utility.yul\":1326:1335   */\n      dup6\n        /* \"#utility.yul\":1322:1344   */\n      add\n        /* \"#utility.yul\":1301:1354   */\n      tag_75\n      jump\t// in\n    tag_101:\n        /* \"#utility.yul\":1291:1354   */\n      swap2\n      pop\n        /* \"#utility.yul\":1247:1364   */\n      pop\n        /* \"#utility.yul\":1042:1371   */\n      swap3\n      swap2\n      pop\n      pop\n      jump\t// out\n        /* \"#utility.yul\":1377:1503   */\n    tag_76:\n        /* \"#utility.yul\":1414:1421   */\n      0x00\n        /* \"#utility.yul\":1454:1496   */\n      0xffffffffffffffffffffffffffffffffffffffff\n        /* \"#utility.yul\":1447:1452   */\n      dup3\n        /* \"#utility.yul\":1443:1497   */\n      and\n        /* \"#utility.yul\":1432:1497   */\n      swap1\n      pop\n        /* \"#utility.yul\":1377:1503   */\n      swap2\n      swap1\n      pop\n      jump\t// out\n        /* \"#utility.yul\":1509:1613   */\n    tag_77:\n        /* \"#utility.yul\":1554:1561   */\n      0x00\n        /* \"#utility.yul\":1583:1607   */\n      tag_104\n        /* \"#utility.yul\":1601:1606   */\n      dup3\n        /* \"#utility.yul\":1583:1607   */\n      tag_76\n      jump\t// in\n    tag_104:\n        /* \"#utility.yul\":1572:1607   */\n      swap1\n      pop\n        /* \"#utility.yul\":1509:1613   */\n      swap2\n      swap1\n      pop\n      jump\t// out\n        /* \"#utility.yul\":1619:1761   */\n    tag_78:\n        /* \"#utility.yul\":1722:1754   */\n      tag_106\n        /* \"#utility.yul\":1748:1753   */\n      dup2\n        /* \"#utility.yul\":1722:1754   */\n      tag_77\n      jump\t// in\n    tag_106:\n        /* \"#utility.yul\":1717:1720   */\n      dup3\n        /* \"#utility.yul\":1710:1755   */\n      mstore\n        /* \"#utility.yul\":1619:1761   */\n      pop\n      pop\n      jump\t// out\n        /* \"#utility.yul\":1767:2021   */\n    tag_26:\n        /* \"#utility.yul\":1876:1880   */\n      0x00\n        /* \"#utility.yul\":1914:1916   */\n      0x20\n        /* \"#utility.yul\":1903:1912   */\n      dup3\n        /* \"#utility.yul\":1899:1917   */\n      add\n        /* \"#utility.yul\":1891:1917   */\n      swap1\n      pop\n        /* \"#utility.yul\":1927:2014   */\n      tag_108\n        /* \"#utility.yul\":2011:2012   */\n      0x00\n        /* \"#utility.yul\":2000:2009   */\n      dup4\n        /* \"#utility.yul\":1996:2013   */\n      add\n        /* \"#utility.yul\":1987:1993   */\n      dup5\n        /* \"#utility.yul\":1927:2014   */\n      tag_78\n      jump\t// in\n    tag_108:\n        /* \"#utility.yul\":1767:2021   */\n      swap3\n      swap2\n      pop\n      pop\n      jump\t// out\n        /* \"#utility.yul\":2027:2123   */\n    tag_79:\n        /* \"#utility.yul\":2064:2071   */\n      0x00\n        /* \"#utility.yul\":2093:2117   */\n      tag_110\n        /* \"#utility.yul\":2111:2116   */\n      dup3\n        /* \"#utility.yul\":2093:2117   */\n      tag_76\n      jump\t// in\n    tag_110:\n        /* \"#utility.yul\":2082:2117   */\n      swap1\n      pop\n        /* \"#utility.yul\":2027:2123   */\n      swap2\n      swap1\n      pop\n      jump\t// out\n        /* \"#utility.yul\":2129:2247   */\n    tag_80:\n        /* \"#utility.yul\":2216:2240   */\n      tag_112\n        /* \"#utility.yul\":2234:2239   */\n      dup2\n        /* \"#utility.yul\":2216:2240   */\n      tag_79\n      jump\t// in\n    tag_112:\n        /* \"#utility.yul\":2211:2214   */\n      dup3\n        /* \"#utility.yul\":2204:2241   */\n      mstore\n        /* \"#utility.yul\":2129:2247   */\n      pop\n      pop\n      jump\t// out\n        /* \"#utility.yul\":2253:2475   */\n    tag_31:\n        /* \"#utility.yul\":2346:2350   */\n      0x00\n        /* \"#utility.yul\":2384:2386   */\n      0x20\n        /* \"#utility.yul\":2373:2382   */\n      dup3\n        /* \"#utility.yul\":2369:2387   */\n      add\n        /* \"#utility.yul\":2361:2387   */\n      swap1\n      pop\n        /* \"#utility.yul\":2397:2468   */\n      tag_114\n        /* \"#utility.yul\":2465:2466   */\n      0x00\n        /* \"#utility.yul\":2454:2463   */\n      dup4\n        /* \"#utility.yul\":2450:2467   */\n      add\n        /* \"#utility.yul\":2441:2447   */\n      dup5\n        /* \"#utility.yul\":2397:2468   */\n      tag_80\n      jump\t// in\n    tag_114:\n        /* \"#utility.yul\":2253:2475   */\n      swap3\n      swap2\n      pop\n      pop\n      jump\t// out\n        /* \"#utility.yul\":2481:2661   */\n    tag_81:\n        /* \"#utility.yul\":2529:2606   */\n      0x4e487b7100000000000000000000000000000000000000000000000000000000\n        /* \"#utility.yul\":2526:2527   */\n      0x00\n        /* \"#utility.yul\":2519:2607   */\n      mstore\n        /* \"#utility.yul\":2626:2630   */\n      0x12\n        /* \"#utility.yul\":2623:2624   */\n      0x04\n        /* \"#utility.yul\":2616:2631   */\n      mstore\n        /* \"#utility.yul\":2650:2654   */\n      0x24\n        /* \"#utility.yul\":2647:2648   */\n      0x00\n        /* \"#utility.yul\":2640:2655   */\n      revert\n        /* \"#utility.yul\":2667:2843   */\n    tag_43:\n        /* \"#utility.yul\":2699:2700   */\n      0x00\n        /* \"#utility.yul\":2716:2736   */\n      tag_117\n        /* \"#utility.yul\":2734:2735   */\n      dup3\n        /* \"#utility.yul\":2716:2736   */\n      tag_69\n      jump\t// in\n    tag_117:\n        /* \"#utility.yul\":2711:2736   */\n      swap2\n      pop\n        /* \"#utility.yul\":2750:2770   */\n      tag_118\n        /* \"#utility.yul\":2768:2769   */\n      dup4\n        /* \"#utility.yul\":2750:2770   */\n      tag_69\n      jump\t// in\n    tag_118:\n        /* \"#utility.yul\":2745:2770   */\n      swap3\n      pop\n        /* \"#utility.yul\":2789:2790   */\n      dup3\n        /* \"#utility.yul\":2779:2814   */\n      tag_119\n      jumpi\n        /* \"#utility.yul\":2794:2812   */\n      tag_120\n      tag_81\n      jump\t// in\n    tag_120:\n        /* \"#utility.yul\":2779:2814   */\n    tag_119:\n        /* \"#utility.yul\":2835:2836   */\n      dup3\n        /* \"#utility.yul\":2832:2833   */\n      dup3\n        /* \"#utility.yul\":2828:2837   */\n      mod\n        /* \"#utility.yul\":2823:2837   */\n      swap1\n      pop\n        /* \"#utility.yul\":2667:2843   */\n      swap3\n      swap2\n      pop\n      pop\n      jump\t// out\n        /* \"#utility.yul\":2849:3029   */\n    tag_46:\n        /* \"#utility.yul\":2897:2974   */\n      0x4e487b7100000000000000000000000000000000000000000000000000000000\n        /* \"#utility.yul\":2894:2895   */\n      0x00\n        /* \"#utility.yul\":2887:2975   */\n      mstore\n        /* \"#utility.yul\":2994:2998   */\n      0x32\n        /* \"#utility.yul\":2991:2992   */\n      0x04\n        /* \"#utility.yul\":2984:2999   */\n      mstore\n        /* \"#utility.yul\":3018:3022   */\n      0x24\n        /* \"#utility.yul\":3015:3016   */\n      0x00\n        /* \"#utility.yul\":3008:3023   */\n      revert\n        /* \"#utility.yul\":3035:3215   */\n    tag_53:\n        /* \"#utility.yul\":3083:3160   */\n      0x4e487b7100000000000000000000000000000000000000000000000000000000\n        /* \"#utility.yul\":3080:3081   */\n      0x00\n        /* \"#utility.yul\":3073:3161   */\n      mstore\n        /* \"#utility.yul\":3180:3184   */\n      0x41\n        /* \"#utility.yul\":3177:3178   */\n      0x04\n        /* \"#utility.yul\":3170:3185   */\n      mstore\n        /* \"#utility.yul\":3204:3208   */\n      0x24\n        /* \"#utility.yul\":3201:3202   */\n      0x00\n        /* \"#utility.yul\":3194:3209   */\n      revert\n        /* \"#utility.yul\":3221:3300   */\n    tag_82:\n        /* \"#utility.yul\":3260:3267   */\n      0x00\n        /* \"#utility.yul\":3289:3294   */\n      dup2\n        /* \"#utility.yul\":3278:3294   */\n      swap1\n      pop\n        /* \"#utility.yul\":3221:3300   */\n      swap2\n      swap1\n      pop\n      jump\t// out\n        /* \"#utility.yul\":3306:3463   */\n    tag_83:\n        /* \"#utility.yul\":3411:3456   */\n      tag_125\n        /* \"#utility.yul\":3431:3455   */\n      tag_126\n        /* \"#utility.yul\":3449:3454   */\n      dup3\n        /* \"#utility.yul\":3431:3455   */\n      tag_69\n      jump\t// in\n    tag_126:\n        /* \"#utility.yul\":3411:3456   */\n      tag_82\n      jump\t// in\n    tag_125:\n        /* \"#utility.yul\":3406:3409   */\n      dup3\n        /* \"#utility.yul\":3399:3457   */\n      mstore\n        /* \"#utility.yul\":3306:3463   */\n      pop\n      pop\n      jump\t// out\n        /* \"#utility.yul\":3469:4007   */\n    tag_61:\n        /* \"#utility.yul\":3637:3640   */\n      0x00\n        /* \"#utility.yul\":3652:3727   */\n      tag_128\n        /* \"#utility.yul\":3723:3726   */\n      dup3\n        /* \"#utility.yul\":3714:3720   */\n      dup7\n        /* \"#utility.yul\":3652:3727   */\n      tag_83\n      jump\t// in\n    tag_128:\n        /* \"#utility.yul\":3752:3754   */\n      0x20\n        /* \"#utility.yul\":3747:3750   */\n      dup3\n        /* \"#utility.yul\":3743:3755   */\n      add\n        /* \"#utility.yul\":3736:3755   */\n      swap2\n      pop\n        /* \"#utility.yul\":3765:3840   */\n      tag_129\n        /* \"#utility.yul\":3836:3839   */\n      dup3\n        /* \"#utility.yul\":3827:3833   */\n      dup6\n        /* \"#utility.yul\":3765:3840   */\n      tag_83\n      jump\t// in\n    tag_129:\n        /* \"#utility.yul\":3865:3867   */\n      0x20\n        /* \"#utility.yul\":3860:3863   */\n      dup3\n        /* \"#utility.yul\":3856:3868   */\n      add\n        /* \"#utility.yul\":3849:3868   */\n      swap2\n      pop\n        /* \"#utility.yul\":3878:3953   */\n      tag_130\n        /* \"#utility.yul\":3949:3952   */\n      dup3\n        /* \"#utility.yul\":3940:3946   */\n      dup5\n        /* \"#utility.yul\":3878:3953   */\n      tag_83\n      jump\t// in\n    tag_130:\n        /* \"#utility.yul\":3978:3980   */\n      0x20\n        /* \"#utility.yul\":3973:3976   */\n      dup3\n        /* \"#utility.yul\":3969:3981   */\n      add\n        /* \"#utility.yul\":3962:3981   */\n      swap2\n      pop\n        /* \"#utility.yul\":3998:4001   */\n      dup2\n        /* \"#utility.yul\":3991:4001   */\n      swap1\n      pop\n        /* \"#utility.yul\":3469:4007   */\n      swap5\n      swap4\n      pop\n      pop\n      pop\n      pop\n      jump\t// out\n\n    auxdata: 0xa2646970667358221220e22a9c23a0f6fd163208ae277a79bc8bf9b7457c3723ae10cea4d78f46f885c664736f6c634300081a0033\n}\n",
				"bytecode": {
					"linkReferences": {},
					"object": "6080604052348015600f57600080fd5b50336000806101000a81548173ffffffffffffffffffffffffffffffffffffffff021916908373ffffffffffffffffffffffffffffffffffffffff1602179055506107488061005f6000396000f3fe60806040526004361061004e5760003560e01c806312065fe0146100d157806333a99e04146100fc57806335c1d34914610113578063481c6a75146101505780635ec01e4d1461017b576100cc565b366100cc57670de0b6b3a764000034101561006857600080fd5b6001339080600181540180825580915050600190039060005260206000200160009091909190916101000a81548173ffffffffffffffffffffffffffffffffffffffff021916908373ffffffffffffffffffffffffffffffffffffffff1602179055005b600080fd5b3480156100dd57600080fd5b506100e66101a6565b6040516100f391906104e5565b60405180910390f35b34801561010857600080fd5b50610111610207565b005b34801561011f57600080fd5b5061013a60048036038101906101359190610531565b610388565b604051610147919061059f565b60405180910390f35b34801561015c57600080fd5b506101656103c7565b60405161017291906105db565b60405180910390f35b34801561018757600080fd5b506101906103eb565b60405161019d91906104e5565b60405180910390f35b60008060009054906101000a900473ffffffffffffffffffffffffffffffffffffffff1673ffffffffffffffffffffffffffffffffffffffff163373ffffffffffffffffffffffffffffffffffffffff161461020157600080fd5b47905090565b60008054906101000a900473ffffffffffffffffffffffffffffffffffffffff1673ffffffffffffffffffffffffffffffffffffffff163373ffffffffffffffffffffffffffffffffffffffff161461025f57600080fd5b6003600180549050101561027257600080fd5b600061027c6103eb565b9050600080600180549050836102929190610625565b9050600181815481106102a8576102a7610656565b5b9060005260206000200160009054906101000a900473ffffffffffffffffffffffffffffffffffffffff1691508173ffffffffffffffffffffffffffffffffffffffff166108fc6102f76101a6565b9081150290604051600060405180830381858888f19350505050158015610322573d6000803e3d6000fd5b50600067ffffffffffffffff81111561033e5761033d610685565b5b60405190808252806020026020018201604052801561036c5781602001602082028036833780820191505090505b5060019080519060200190610382929190610425565b50505050565b6001818154811061039857600080fd5b906000526020600020016000915054906101000a900473ffffffffffffffffffffffffffffffffffffffff1681565b60008054906101000a900473ffffffffffffffffffffffffffffffffffffffff1681565b60004442600180549050604051602001610407939291906106d5565b6040516020818303038152906040528051906020012060001c905090565b82805482825590600052602060002090810192821561049e579160200282015b8281111561049d5782518260006101000a81548173ffffffffffffffffffffffffffffffffffffffff021916908373ffffffffffffffffffffffffffffffffffffffff16021790555091602001919060010190610445565b5b5090506104ab91906104af565b5090565b5b808211156104c85760008160009055506001016104b0565b5090565b6000819050919050565b6104df816104cc565b82525050565b60006020820190506104fa60008301846104d6565b92915050565b600080fd5b61050e816104cc565b811461051957600080fd5b50565b60008135905061052b81610505565b92915050565b60006020828403121561054757610546610500565b5b60006105558482850161051c565b91505092915050565b600073ffffffffffffffffffffffffffffffffffffffff82169050919050565b60006105898261055e565b9050919050565b6105998161057e565b82525050565b60006020820190506105b46000830184610590565b92915050565b60006105c58261055e565b9050919050565b6105d5816105ba565b82525050565b60006020820190506105f060008301846105cc565b92915050565b7f4e487b7100000000000000000000000000000000000000000000000000000000600052601260045260246000fd5b6000610630826104cc565b915061063b836104cc565b92508261064b5761064a6105f6565b5b828206905092915050565b7f4e487b7100000000000000000000000000000000000000000000000000000000600052603260045260246000fd5b7f4e487b7100000000000000000000000000000000000000000000000000000000600052604160045260246000fd5b6000819050919050565b6106cf6106ca826104cc565b6106b4565b82525050565b60006106e182866106be565b6020820191506106f182856106be565b60208201915061070182846106be565b60208201915081905094935050505056fea2646970667358221220e22a9c23a0f6fd163208ae277a79bc8bf9b7457c3723ae10cea4d78f46f885c664736f6c634300081a0033",
					"opcodes": "PUSH1 0x80 PUSH1 0x40 MSTORE CALLVALUE DUP1 ISZERO PUSH1 0xF JUMPI PUSH1 0x0 DUP1 REVERT JUMPDEST POP CALLER PUSH1 0x0 DUP1 PUSH2 0x100 EXP DUP2 SLOAD DUP2 PUSH20 0xFFFFFFFFFFFFFFFFFFFFFFFFFFFFFFFFFFFFFFFF MUL NOT AND SWAP1 DUP4 PUSH20 0xFFFFFFFFFFFFFFFFFFFFFFFFFFFFFFFFFFFFFFFF AND MUL OR SWAP1 SSTORE POP PUSH2 0x748 DUP1 PUSH2 0x5F PUSH1 0x0 CODECOPY PUSH1 0x0 RETURN INVALID PUSH1 0x80 PUSH1 0x40 MSTORE PUSH1 0x4 CALLDATASIZE LT PUSH2 0x4E JUMPI PUSH1 0x0 CALLDATALOAD PUSH1 0xE0 SHR DUP1 PUSH4 0x12065FE0 EQ PUSH2 0xD1 JUMPI DUP1 PUSH4 0x33A99E04 EQ PUSH2 0xFC JUMPI DUP1 PUSH4 0x35C1D349 EQ PUSH2 0x113 JUMPI DUP1 PUSH4 0x481C6A75 EQ PUSH2 0x150 JUMPI DUP1 PUSH4 0x5EC01E4D EQ PUSH2 0x17B JUMPI PUSH2 0xCC JUMP JUMPDEST CALLDATASIZE PUSH2 0xCC JUMPI PUSH8 0xDE0B6B3A7640000 CALLVALUE LT ISZERO PUSH2 0x68 JUMPI PUSH1 0x0 DUP1 REVERT JUMPDEST PUSH1 0x1 CALLER SWAP1 DUP1 PUSH1 0x1 DUP2 SLOAD ADD DUP1 DUP3 SSTORE DUP1 SWAP2 POP POP PUSH1 0x1 SWAP1 SUB SWAP1 PUSH1 0x0 MSTORE PUSH1 0x20 PUSH1 0x0 KECCAK256 ADD PUSH1 0x0 SWAP1 SWAP2 SWAP1 SWAP2 SWAP1 SWAP2 PUSH2 0x100 EXP DUP2 SLOAD DUP2 PUSH20 0xFFFFFFFFFFFFFFFFFFFFFFFFFFFFFFFFFFFFFFFF MUL NOT AND SWAP1 DUP4 PUSH20 0xFFFFFFFFFFFFFFFFFFFFFFFFFFFFFFFFFFFFFFFF AND MUL OR SWAP1 SSTORE STOP JUMPDEST PUSH1 0x0 DUP1 REVERT JUMPDEST CALLVALUE DUP1 ISZERO PUSH2 0xDD JUMPI PUSH1 0x0 DUP1 REVERT JUMPDEST POP PUSH2 0xE6 PUSH2 0x1A6 JUMP JUMPDEST PUSH1 0x40 MLOAD PUSH2 0xF3 SWAP2 SWAP1 PUSH2 0x4E5 JUMP JUMPDEST PUSH1 0x40 MLOAD DUP1 SWAP2 SUB SWAP1 RETURN JUMPDEST CALLVALUE DUP1 ISZERO PUSH2 0x108 JUMPI PUSH1 0x0 DUP1 REVERT JUMPDEST POP PUSH2 0x111 PUSH2 0x207 JUMP JUMPDEST STOP JUMPDEST CALLVALUE DUP1 ISZERO PUSH2 0x11F JUMPI PUSH1 0x0 DUP1 REVERT JUMPDEST POP PUSH2 0x13A PUSH1 0x4 DUP1 CALLDATASIZE SUB DUP2 ADD SWAP1 PUSH2 0x135 SWAP2 SWAP1 PUSH2 0x531 JUMP JUMPDEST PUSH2 0x388 JUMP JUMPDEST PUSH1 0x40 MLOAD PUSH2 0x147 SWAP2 SWAP1 PUSH2 0x59F JUMP JUMPDEST PUSH1 0x40 MLOAD DUP1 SWAP2 SUB SWAP1 RETURN JUMPDEST CALLVALUE DUP1 ISZERO PUSH2 0x15C JUMPI PUSH1 0x0 DUP1 REVERT JUMPDEST POP PUSH2 0x165 PUSH2 0x3C7 JUMP JUMPDEST PUSH1 0x40 MLOAD PUSH2 0x172 SWAP2 SWAP1 PUSH2 0x5DB JUMP JUMPDEST PUSH1 0x40 MLOAD DUP1 SWAP2 SUB SWAP1 RETURN JUMPDEST CALLVALUE DUP1 ISZERO PUSH2 0x187 JUMPI PUSH1 0x0 DUP1 REVERT JUMPDEST POP PUSH2 0x190 PUSH2 0x3EB JUMP JUMPDEST PUSH1 0x40 MLOAD PUSH2 0x19D SWAP2 SWAP1 PUSH2 0x4E5 JUMP JUMPDEST PUSH1 0x40 MLOAD DUP1 SWAP2 SUB SWAP1 RETURN JUMPDEST PUSH1 0x0 DUP1 PUSH1 0x0 SWAP1 SLOAD SWAP1 PUSH2 0x100 EXP SWAP1 DIV PUSH20 0xFFFFFFFFFFFFFFFFFFFFFFFFFFFFFFFFFFFFFFFF AND PUSH20 0xFFFFFFFFFFFFFFFFFFFFFFFFFFFFFFFFFFFFFFFF AND CALLER PUSH20 0xFFFFFFFFFFFFFFFFFFFFFFFFFFFFFFFFFFFFFFFF AND EQ PUSH2 0x201 JUMPI PUSH1 0x0 DUP1 REVERT JUMPDEST SELFBALANCE SWAP1 POP SWAP1 JUMP JUMPDEST PUSH1 0x0 DUP1 SLOAD SWAP1 PUSH2 0x100 EXP SWAP1 DIV PUSH20 0xFFFFFFFFFFFFFFFFFFFFFFFFFFFFFFFFFFFFFFFF AND PUSH20 0xFFFFFFFFFFFFFFFFFFFFFFFFFFFFFFFFFFFFFFFF AND CALLER PUSH20 0xFFFFFFFFFFFFFFFFFFFFFFFFFFFFFFFFFFFFFFFF AND EQ PUSH2 0x25F JUMPI PUSH1 0x0 DUP1 REVERT JUMPDEST PUSH1 0x3 PUSH1 0x1 DUP1 SLOAD SWAP1 POP LT ISZERO PUSH2 0x272 JUMPI PUSH1 0x0 DUP1 REVERT JUMPDEST PUSH1 0x0 PUSH2 0x27C PUSH2 0x3EB JUMP JUMPDEST SWAP1 POP PUSH1 0x0 DUP1 PUSH1 0x1 DUP1 SLOAD SWAP1 POP DUP4 PUSH2 0x292 SWAP2 SWAP1 PUSH2 0x625 JUMP JUMPDEST SWAP1 POP PUSH1 0x1 DUP2 DUP2 SLOAD DUP2 LT PUSH2 0x2A8 JUMPI PUSH2 0x2A7 PUSH2 0x656 JUMP JUMPDEST JUMPDEST SWAP1 PUSH1 0x0 MSTORE PUSH1 0x20 PUSH1 0x0 KECCAK256 ADD PUSH1 0x0 SWAP1 SLOAD SWAP1 PUSH2 0x100 EXP SWAP1 DIV PUSH20 0xFFFFFFFFFFFFFFFFFFFFFFFFFFFFFFFFFFFFFFFF AND SWAP2 POP DUP2 PUSH20 0xFFFFFFFFFFFFFFFFFFFFFFFFFFFFFFFFFFFFFFFF AND PUSH2 0x8FC PUSH2 0x2F7 PUSH2 0x1A6 JUMP JUMPDEST SWAP1 DUP2 ISZERO MUL SWAP1 PUSH1 0x40 MLOAD PUSH1 0x0 PUSH1 0x40 MLOAD DUP1 DUP4 SUB DUP2 DUP6 DUP9 DUP9 CALL SWAP4 POP POP POP POP ISZERO DUP1 ISZERO PUSH2 0x322 JUMPI RETURNDATASIZE PUSH1 0x0 DUP1 RETURNDATACOPY RETURNDATASIZE PUSH1 0x0 REVERT JUMPDEST POP PUSH1 0x0 PUSH8 0xFFFFFFFFFFFFFFFF DUP2 GT ISZERO PUSH2 0x33E JUMPI PUSH2 0x33D PUSH2 0x685 JUMP JUMPDEST JUMPDEST PUSH1 0x40 MLOAD SWAP1 DUP1 DUP3 MSTORE DUP1 PUSH1 0x20 MUL PUSH1 0x20 ADD DUP3 ADD PUSH1 0x40 MSTORE DUP1 ISZERO PUSH2 0x36C JUMPI DUP2 PUSH1 0x20 ADD PUSH1 0x20 DUP3 MUL DUP1 CALLDATASIZE DUP4 CALLDATACOPY DUP1 DUP3 ADD SWAP2 POP POP SWAP1 POP JUMPDEST POP PUSH1 0x1 SWAP1 DUP1 MLOAD SWAP1 PUSH1 0x20 ADD SWAP1 PUSH2 0x382 SWAP3 SWAP2 SWAP1 PUSH2 0x425 JUMP JUMPDEST POP POP POP POP JUMP JUMPDEST PUSH1 0x1 DUP2 DUP2 SLOAD DUP2 LT PUSH2 0x398 JUMPI PUSH1 0x0 DUP1 REVERT JUMPDEST SWAP1 PUSH1 0x0 MSTORE PUSH1 0x20 PUSH1 0x0 KECCAK256 ADD PUSH1 0x0 SWAP2 POP SLOAD SWAP1 PUSH2 0x100 EXP SWAP1 DIV PUSH20 0xFFFFFFFFFFFFFFFFFFFFFFFFFFFFFFFFFFFFFFFF AND DUP2 JUMP JUMPDEST PUSH1 0x0 DUP1 SLOAD SWAP1 PUSH2 0x100 EXP SWAP1 DIV PUSH20 0xFFFFFFFFFFFFFFFFFFFFFFFFFFFFFFFFFFFFFFFF AND DUP2 JUMP JUMPDEST PUSH1 0x0 DIFFICULTY TIMESTAMP PUSH1 0x1 DUP1 SLOAD SWAP1 POP PUSH1 0x40 MLOAD PUSH1 0x20 ADD PUSH2 0x407 SWAP4 SWAP3 SWAP2 SWAP1 PUSH2 0x6D5 JUMP JUMPDEST PUSH1 0x40 MLOAD PUSH1 0x20 DUP2 DUP4 SUB SUB DUP2 MSTORE SWAP1 PUSH1 0x40 MSTORE DUP1 MLOAD SWAP1 PUSH1 0x20 ADD KECCAK256 PUSH1 0x0 SHR SWAP1 POP SWAP1 JUMP JUMPDEST DUP3 DUP1 SLOAD DUP3 DUP3 SSTORE SWAP1 PUSH1 0x0 MSTORE PUSH1 0x20 PUSH1 0x0 KECCAK256 SWAP1 DUP2 ADD SWAP3 DUP3 ISZERO PUSH2 0x49E JUMPI SWAP2 PUSH1 0x20 MUL DUP3 ADD JUMPDEST DUP3 DUP2 GT ISZERO PUSH2 0x49D JUMPI DUP3 MLOAD DUP3 PUSH1 0x0 PUSH2 0x100 EXP DUP2 SLOAD DUP2 PUSH20 0xFFFFFFFFFFFFFFFFFFFFFFFFFFFFFFFFFFFFFFFF MUL NOT AND SWAP1 DUP4 PUSH20 0xFFFFFFFFFFFFFFFFFFFFFFFFFFFFFFFFFFFFFFFF AND MUL OR SWAP1 SSTORE POP SWAP2 PUSH1 0x20 ADD SWAP2 SWAP1 PUSH1 0x1 ADD SWAP1 PUSH2 0x445 JUMP JUMPDEST JUMPDEST POP SWAP1 POP PUSH2 0x4AB SWAP2 SWAP1 PUSH2 0x4AF JUMP JUMPDEST POP SWAP1 JUMP JUMPDEST JUMPDEST DUP1 DUP3 GT ISZERO PUSH2 0x4C8 JUMPI PUSH1 0x0 DUP2 PUSH1 0x0 SWAP1 SSTORE POP PUSH1 0x1 ADD PUSH2 0x4B0 JUMP JUMPDEST POP SWAP1 JUMP JUMPDEST PUSH1 0x0 DUP2 SWAP1 POP SWAP2 SWAP1 POP JUMP JUMPDEST PUSH2 0x4DF DUP2 PUSH2 0x4CC JUMP JUMPDEST DUP3 MSTORE POP POP JUMP JUMPDEST PUSH1 0x0 PUSH1 0x20 DUP3 ADD SWAP1 POP PUSH2 0x4FA PUSH1 0x0 DUP4 ADD DUP5 PUSH2 0x4D6 JUMP JUMPDEST SWAP3 SWAP2 POP POP JUMP JUMPDEST PUSH1 0x0 DUP1 REVERT JUMPDEST PUSH2 0x50E DUP2 PUSH2 0x4CC JUMP JUMPDEST DUP2 EQ PUSH2 0x519 JUMPI PUSH1 0x0 DUP1 REVERT JUMPDEST POP JUMP JUMPDEST PUSH1 0x0 DUP2 CALLDATALOAD SWAP1 POP PUSH2 0x52B DUP2 PUSH2 0x505 JUMP JUMPDEST SWAP3 SWAP2 POP POP JUMP JUMPDEST PUSH1 0x0 PUSH1 0x20 DUP3 DUP5 SUB SLT ISZERO PUSH2 0x547 JUMPI PUSH2 0x546 PUSH2 0x500 JUMP JUMPDEST JUMPDEST PUSH1 0x0 PUSH2 0x555 DUP5 DUP3 DUP6 ADD PUSH2 0x51C JUMP JUMPDEST SWAP2 POP POP SWAP3 SWAP2 POP POP JUMP JUMPDEST PUSH1 0x0 PUSH20 0xFFFFFFFFFFFFFFFFFFFFFFFFFFFFFFFFFFFFFFFF DUP3 AND SWAP1 POP SWAP2 SWAP1 POP JUMP JUMPDEST PUSH1 0x0 PUSH2 0x589 DUP3 PUSH2 0x55E JUMP JUMPDEST SWAP1 POP SWAP2 SWAP1 POP JUMP JUMPDEST PUSH2 0x599 DUP2 PUSH2 0x57E JUMP JUMPDEST DUP3 MSTORE POP POP JUMP JUMPDEST PUSH1 0x0 PUSH1 0x20 DUP3 ADD SWAP1 POP PUSH2 0x5B4 PUSH1 0x0 DUP4 ADD DUP5 PUSH2 0x590 JUMP JUMPDEST SWAP3 SWAP2 POP POP JUMP JUMPDEST PUSH1 0x0 PUSH2 0x5C5 DUP3 PUSH2 0x55E JUMP JUMPDEST SWAP1 POP SWAP2 SWAP1 POP JUMP JUMPDEST PUSH2 0x5D5 DUP2 PUSH2 0x5BA JUMP JUMPDEST DUP3 MSTORE POP POP JUMP JUMPDEST PUSH1 0x0 PUSH1 0x20 DUP3 ADD SWAP1 POP PUSH2 0x5F0 PUSH1 0x0 DUP4 ADD DUP5 PUSH2 0x5CC JUMP JUMPDEST SWAP3 SWAP2 POP POP JUMP JUMPDEST PUSH32 0x4E487B7100000000000000000000000000000000000000000000000000000000 PUSH1 0x0 MSTORE PUSH1 0x12 PUSH1 0x4 MSTORE PUSH1 0x24 PUSH1 0x0 REVERT JUMPDEST PUSH1 0x0 PUSH2 0x630 DUP3 PUSH2 0x4CC JUMP JUMPDEST SWAP2 POP PUSH2 0x63B DUP4 PUSH2 0x4CC JUMP JUMPDEST SWAP3 POP DUP3 PUSH2 0x64B JUMPI PUSH2 0x64A PUSH2 0x5F6 JUMP JUMPDEST JUMPDEST DUP3 DUP3 MOD SWAP1 POP SWAP3 SWAP2 POP POP JUMP JUMPDEST PUSH32 0x4E487B7100000000000000000000000000000000000000000000000000000000 PUSH1 0x0 MSTORE PUSH1 0x32 PUSH1 0x4 MSTORE PUSH1 0x24 PUSH1 0x0 REVERT JUMPDEST PUSH32 0x4E487B7100000000000000000000000000000000000000000000000000000000 PUSH1 0x0 MSTORE PUSH1 0x41 PUSH1 0x4 MSTORE PUSH1 0x24 PUSH1 0x0 REVERT JUMPDEST PUSH1 0x0 DUP2 SWAP1 POP SWAP2 SWAP1 POP JUMP JUMPDEST PUSH2 0x6CF PUSH2 0x6CA DUP3 PUSH2 0x4CC JUMP JUMPDEST PUSH2 0x6B4 JUMP JUMPDEST DUP3 MSTORE POP POP JUMP JUMPDEST PUSH1 0x0 PUSH2 0x6E1 DUP3 DUP7 PUSH2 0x6BE JUMP JUMPDEST PUSH1 0x20 DUP3 ADD SWAP2 POP PUSH2 0x6F1 DUP3 DUP6 PUSH2 0x6BE JUMP JUMPDEST PUSH1 0x20 DUP3 ADD SWAP2 POP PUSH2 0x701 DUP3 DUP5 PUSH2 0x6BE JUMP JUMPDEST PUSH1 0x20 DUP3 ADD SWAP2 POP DUP2 SWAP1 POP SWAP5 SWAP4 POP POP POP POP JUMP INVALID LOG2 PUSH5 0x6970667358 0x22 SLT KECCAK256 0xE2 0x2A SWAP13 0x23 LOG0 0xF6 REVERT AND ORIGIN ADDMOD 0xAE 0x27 PUSH27 0x79BC8BF9B7457C3723AE10CEA4D78F46F885C664736F6C63430008 BYTE STOP CALLER "
				},
				"gasEstimates": {
					"creation": {
						"codeDepositCost": "372800",
						"executionCost": "24677",
						"totalCost": "397477"
					},
					"external": {
						"getBalance()": "2487",
						"manager()": "2555",
						"participants(uint256)": "4978",
						"random()": "infinite",
						"selectWinner()": "infinite"
					}
				},
				"methodIdentifiers": {
					"getBalance()": "12065fe0",
					"manager()": "481c6a75",
					"participants(uint256)": "35c1d349",
					"random()": "5ec01e4d",
					"selectWinner()": "33a99e04"
				}
			},
			"storageLayout": {
				"storage": [
					{
						"astId": 3,
						"contract": "Lottery.sol:Lottery",
						"label": "manager",
						"offset": 0,
						"slot": "0",
						"type": "t_address"
					},
					{
						"astId": 6,
						"contract": "Lottery.sol:Lottery",
						"label": "participants",
						"offset": 0,
						"slot": "1",
						"type": "t_array(t_address_payable)dyn_storage"
					}
				],
				"types": {
					"t_address": {
						"encoding": "inplace",
						"label": "address",
						"numberOfBytes": "20"
					},
					"t_address_payable": {
						"encoding": "inplace",
						"label": "address payable",
						"numberOfBytes": "20"
					},
					"t_array(t_address_payable)dyn_storage": {
						"base": "t_address_payable",
						"encoding": "dynamic_array",
						"label": "address payable[]",
						"numberOfBytes": "32"
					}
				}
			},
			"userdoc": {
				"kind": "user",
				"methods": {},
				"version": 1
			}
		}
	}
}